{
  "_format": "hh-sol-artifact-1",
  "contractName": "CoinFlip",
  "sourceName": "contracts/CoinFlip.sol",
  "abi": [
    {
      "anonymous": false,
      "inputs": [
        {
          "indexed": false,
          "internalType": "address",
          "name": "player",
          "type": "address"
        },
        {
          "indexed": false,
          "internalType": "uint256",
          "name": "amount",
          "type": "uint256"
        }
      ],
      "name": "Loser",
      "type": "event"
    },
    {
      "anonymous": false,
      "inputs": [
        {
          "indexed": true,
          "internalType": "address",
          "name": "previousOwner",
          "type": "address"
        },
        {
          "indexed": true,
          "internalType": "address",
          "name": "newOwner",
          "type": "address"
        }
      ],
      "name": "OwnershipTransferred",
      "type": "event"
    },
    {
      "anonymous": false,
      "inputs": [
        {
          "indexed": false,
          "internalType": "address",
          "name": "player",
          "type": "address"
        },
        {
          "indexed": false,
          "internalType": "uint256",
          "name": "amount",
          "type": "uint256"
        }
      ],
      "name": "Winner",
      "type": "event"
    },
    {
      "anonymous": false,
      "inputs": [
        {
          "indexed": false,
          "internalType": "address",
          "name": "owner",
          "type": "address"
        },
        {
          "indexed": false,
          "internalType": "uint256",
          "name": "amount",
          "type": "uint256"
        }
      ],
      "name": "Withdraw",
      "type": "event"
    },
    {
      "stateMutability": "payable",
      "type": "fallback"
    },
    {
      "inputs": [
        {
          "internalType": "uint256",
          "name": "bet",
          "type": "uint256"
        }
      ],
      "name": "flip",
      "outputs": [],
      "stateMutability": "payable",
      "type": "function"
    },
    {
      "inputs": [],
      "name": "getBalance",
      "outputs": [
        {
          "internalType": "uint256",
          "name": "",
          "type": "uint256"
        }
      ],
      "stateMutability": "view",
      "type": "function"
    },
    {
      "inputs": [],
      "name": "owner",
      "outputs": [
        {
          "internalType": "address",
          "name": "",
          "type": "address"
        }
      ],
      "stateMutability": "view",
      "type": "function"
    },
    {
      "inputs": [],
      "name": "renounceOwnership",
      "outputs": [],
      "stateMutability": "nonpayable",
      "type": "function"
    },
    {
      "inputs": [
        {
          "internalType": "address",
          "name": "newOwner",
          "type": "address"
        }
      ],
      "name": "transferOwnership",
      "outputs": [],
      "stateMutability": "nonpayable",
      "type": "function"
    },
    {
      "inputs": [],
      "name": "withdrawLYXt",
      "outputs": [],
      "stateMutability": "nonpayable",
      "type": "function"
    },
    {
      "stateMutability": "payable",
      "type": "receive"
    }
  ],
  "bytecode": "0x608060405234801561001057600080fd5b5061002d61002261003260201b60201c565b61003a60201b60201c565b6100fe565b600033905090565b60008060009054906101000a900473ffffffffffffffffffffffffffffffffffffffff169050816000806101000a81548173ffffffffffffffffffffffffffffffffffffffff021916908373ffffffffffffffffffffffffffffffffffffffff1602179055508173ffffffffffffffffffffffffffffffffffffffff168173ffffffffffffffffffffffffffffffffffffffff167f8be0079c531659141344cd1fd0a4f28419497f9722a3daafe3b4186f6b6457e060405160405180910390a35050565b610e1e8061010d6000396000f3fe6080604052600436106100595760003560e01c806312065fe014610062578063221e885d1461008d5780633378fbeb146100a9578063715018a6146100c05780638da5cb5b146100d7578063f2fde38b1461010257610060565b3661006057005b005b34801561006e57600080fd5b5061007761012b565b60405161008491906107a3565b60405180910390f35b6100a760048036038101906100a291906107ef565b610133565b005b3480156100b557600080fd5b506100be610355565b005b3480156100cc57600080fd5b506100d56104d4565b005b3480156100e357600080fd5b506100ec61055c565b6040516100f9919061085d565b60405180910390f35b34801561010e57600080fd5b50610129600480360381019061012491906108a4565b610585565b005b600047905090565b60003411610176576040517f08c379a000000000000000000000000000000000000000000000000000000000815260040161016d9061092e565b60405180910390fd5b3447610182919061097d565b3411156101c4576040517f08c379a00000000000000000000000000000000000000000000000000000000081526004016101bb90610a23565b60405180910390fd5b60008114806101d35750600181145b610212576040517f08c379a000000000000000000000000000000000000000000000000000000000815260040161020990610a8f565b60405180910390fd5b61021a61067d565b8114156103185760003373ffffffffffffffffffffffffffffffffffffffff166002346102479190610aaf565b60405161025390610b3a565b60006040518083038185875af1925050503d8060008114610290576040519150601f19603f3d011682016040523d82523d6000602084013e610295565b606091505b50509050806102d9576040517f08c379a00000000000000000000000000000000000000000000000000000000081526004016102d090610b9b565b60405180910390fd5b7f9c2270628a9b29d30ae96b6c4c14ed646ee134febdce38a5b77f2bde9cea2e20333460405161030a929190610bbb565b60405180910390a150610352565b7f6fe134047f45f02cf3cb4f41585cfa07ee161cda0e28816e99eb460697c30e1e3334604051610349929190610bbb565b60405180910390a15b50565b61035d6106be565b73ffffffffffffffffffffffffffffffffffffffff1661037b61055c565b73ffffffffffffffffffffffffffffffffffffffff16146103d1576040517f08c379a00000000000000000000000000000000000000000000000000000000081526004016103c890610c30565b60405180910390fd5b60006103db61012b565b905060006103e761055c565b73ffffffffffffffffffffffffffffffffffffffff168260405161040a90610b3a565b60006040518083038185875af1925050503d8060008114610447576040519150601f19603f3d011682016040523d82523d6000602084013e61044c565b606091505b5050905080610490576040517f08c379a000000000000000000000000000000000000000000000000000000000815260040161048790610b9b565b60405180910390fd5b7f884edad9ce6fa2440d8a54cc123490eb96d2768479d49ff9c7366125a94243646104b961055c565b836040516104c8929190610bbb565b60405180910390a15050565b6104dc6106be565b73ffffffffffffffffffffffffffffffffffffffff166104fa61055c565b73ffffffffffffffffffffffffffffffffffffffff1614610550576040517f08c379a000000000000000000000000000000000000000000000000000000000815260040161054790610c30565b60405180910390fd5b61055a60006106c6565b565b60008060009054906101000a900473ffffffffffffffffffffffffffffffffffffffff16905090565b61058d6106be565b73ffffffffffffffffffffffffffffffffffffffff166105ab61055c565b73ffffffffffffffffffffffffffffffffffffffff1614610601576040517f08c379a00000000000000000000000000000000000000000000000000000000081526004016105f890610c30565b60405180910390fd5b600073ffffffffffffffffffffffffffffffffffffffff168173ffffffffffffffffffffffffffffffffffffffff161415610671576040517f08c379a000000000000000000000000000000000000000000000000000000000815260040161066890610cc2565b60405180910390fd5b61067a816106c6565b50565b6000600242443360405160200161069693929190610d4b565b6040516020818303038152906040528051906020012060001c6106b99190610db7565b905090565b600033905090565b60008060009054906101000a900473ffffffffffffffffffffffffffffffffffffffff169050816000806101000a81548173ffffffffffffffffffffffffffffffffffffffff021916908373ffffffffffffffffffffffffffffffffffffffff1602179055508173ffffffffffffffffffffffffffffffffffffffff168173ffffffffffffffffffffffffffffffffffffffff167f8be0079c531659141344cd1fd0a4f28419497f9722a3daafe3b4186f6b6457e060405160405180910390a35050565b6000819050919050565b61079d8161078a565b82525050565b60006020820190506107b86000830184610794565b92915050565b600080fd5b6107cc8161078a565b81146107d757600080fd5b50565b6000813590506107e9816107c3565b92915050565b600060208284031215610805576108046107be565b5b6000610813848285016107da565b91505092915050565b600073ffffffffffffffffffffffffffffffffffffffff82169050919050565b60006108478261081c565b9050919050565b6108578161083c565b82525050565b6000602082019050610872600083018461084e565b92915050565b6108818161083c565b811461088c57600080fd5b50565b60008135905061089e81610878565b92915050565b6000602082840312156108ba576108b96107be565b5b60006108c88482850161088f565b91505092915050565b600082825260208201905092915050565b7f596f75206d757374207761676572206d6f7265207468616e2030204c59587400600082015250565b6000610918601f836108d1565b9150610923826108e2565b602082019050919050565b600060208201905081810360008301526109478161090b565b9050919050565b7f4e487b7100000000000000000000000000000000000000000000000000000000600052601160045260246000fd5b60006109888261078a565b91506109938361078a565b9250828210156109a6576109a561094e565b5b828203905092915050565b7f47616d652062616c616e636520697320746f6f206c6f772c207472792062657460008201527f74696e67206c657373204c595874000000000000000000000000000000000000602082015250565b6000610a0d602e836108d1565b9150610a18826109b1565b604082019050919050565b60006020820190508181036000830152610a3c81610a00565b9050919050565b7f596f75206d7573742067756573732030206f7220310000000000000000000000600082015250565b6000610a796015836108d1565b9150610a8482610a43565b602082019050919050565b60006020820190508181036000830152610aa881610a6c565b9050919050565b6000610aba8261078a565b9150610ac58361078a565b9250817fffffffffffffffffffffffffffffffffffffffffffffffffffffffffffffffff0483118215151615610afe57610afd61094e565b5b828202905092915050565b600081905092915050565b50565b6000610b24600083610b09565b9150610b2f82610b14565b600082019050919050565b6000610b4582610b17565b9150819050919050565b7f4661696c656420746f2073656e64204c59587400000000000000000000000000600082015250565b6000610b856013836108d1565b9150610b9082610b4f565b602082019050919050565b60006020820190508181036000830152610bb481610b78565b9050919050565b6000604082019050610bd0600083018561084e565b610bdd6020830184610794565b9392505050565b7f4f776e61626c653a2063616c6c6572206973206e6f7420746865206f776e6572600082015250565b6000610c1a6020836108d1565b9150610c2582610be4565b602082019050919050565b60006020820190508181036000830152610c4981610c0d565b9050919050565b7f4f776e61626c653a206e6577206f776e657220697320746865207a65726f206160008201527f6464726573730000000000000000000000000000000000000000000000000000602082015250565b6000610cac6026836108d1565b9150610cb782610c50565b604082019050919050565b60006020820190508181036000830152610cdb81610c9f565b9050919050565b6000819050919050565b610cfd610cf88261078a565b610ce2565b82525050565b60008160601b9050919050565b6000610d1b82610d03565b9050919050565b6000610d2d82610d10565b9050919050565b610d45610d408261083c565b610d22565b82525050565b6000610d578286610cec565b602082019150610d678285610cec565b602082019150610d778284610d34565b601482019150819050949350505050565b7f4e487b7100000000000000000000000000000000000000000000000000000000600052601260045260246000fd5b6000610dc28261078a565b9150610dcd8361078a565b925082610ddd57610ddc610d88565b5b82820690509291505056fea26469706673582212203fd938bc8091f08dda299cbd3790b06e306894c1a40fa0e55a2ad4b1ee8ad5a864736f6c634300080a0033",
  "linkReferences": {},
  "deployedLinkReferences": {}
}